{
  "_format": "hh-sol-artifact-1",
  "contractName": "ClassRegistration",
  "sourceName": "contracts/ClassRegistration.sol",
  "abi": [
    {
      "inputs": [],
      "stateMutability": "nonpayable",
      "type": "constructor"
    },
    {
      "anonymous": false,
      "inputs": [
        {
          "indexed": true,
          "internalType": "uint256",
          "name": "studentId",
          "type": "uint256"
        },
        {
          "indexed": false,
          "internalType": "string",
          "name": "name",
          "type": "string"
        }
      ],
      "name": "StudentRegistered",
      "type": "event"
    },
    {
      "anonymous": false,
      "inputs": [
        {
          "indexed": true,
          "internalType": "uint256",
          "name": "studentId",
          "type": "uint256"
        }
      ],
      "name": "StudentRemoved",
      "type": "event"
    },
    {
      "inputs": [],
      "name": "admin",
      "outputs": [
        {
          "internalType": "address",
          "name": "",
          "type": "address"
        }
      ],
      "stateMutability": "view",
      "type": "function"
    },
    {
      "inputs": [
        {
          "internalType": "uint256",
          "name": "_id",
          "type": "uint256"
        }
      ],
      "name": "getStudentbyId",
      "outputs": [
        {
          "internalType": "string",
          "name": "name",
          "type": "string"
        },
        {
          "internalType": "bool",
          "name": "isRegistered",
          "type": "bool"
        }
      ],
      "stateMutability": "view",
      "type": "function"
    },
    {
      "inputs": [],
      "name": "getStudents",
      "outputs": [
        {
          "components": [
            {
              "internalType": "uint256",
              "name": "id",
              "type": "uint256"
            },
            {
              "internalType": "string",
              "name": "name",
              "type": "string"
            },
            {
              "internalType": "bool",
              "name": "isRegistered",
              "type": "bool"
            }
          ],
          "internalType": "struct ClassRegistration.Student[]",
          "name": "",
          "type": "tuple[]"
        }
      ],
      "stateMutability": "view",
      "type": "function"
    },
    {
      "inputs": [
        {
          "internalType": "uint256",
          "name": "_id",
          "type": "uint256"
        },
        {
          "internalType": "string",
          "name": "_name",
          "type": "string"
        }
      ],
      "name": "registerStudent",
      "outputs": [],
      "stateMutability": "nonpayable",
      "type": "function"
    },
    {
      "inputs": [
        {
          "internalType": "uint256",
          "name": "_id",
          "type": "uint256"
        }
      ],
      "name": "removeStudent",
      "outputs": [],
      "stateMutability": "nonpayable",
      "type": "function"
    }
  ],
  "bytecode": "0x608060405234801561001057600080fd5b50336000806101000a81548173ffffffffffffffffffffffffffffffffffffffff021916908373ffffffffffffffffffffffffffffffffffffffff160217905550611314806100606000396000f3fe608060405234801561001057600080fd5b50600436106100575760003560e01c80633f9586d41461005c5780636af83845146100785780638c9e201f14610094578063f1d064b3146100c5578063f851a440146100e3575b600080fd5b61007660048036038101906100719190610958565b610101565b005b610092600480360381019061008d91906109b8565b610313565b005b6100ae60048036038101906100a991906109b8565b61053e565b6040516100bc929190610a90565b60405180910390f35b6100cd610674565b6040516100da9190610c3a565b60405180910390f35b6100eb61080f565b6040516100f89190610c9d565b60405180910390f35b60008054906101000a900473ffffffffffffffffffffffffffffffffffffffff1673ffffffffffffffffffffffffffffffffffffffff163373ffffffffffffffffffffffffffffffffffffffff161461018f576040517f08c379a000000000000000000000000000000000000000000000000000000000815260040161018690610d04565b60405180910390fd5b6001600084815260200190815260200160002060020160009054906101000a900460ff16156101f3576040517f08c379a00000000000000000000000000000000000000000000000000000000081526004016101ea90610d70565b60405180910390fd5b604051806060016040528084815260200183838080601f016020809104026020016040519081016040528093929190818152602001838380828437600081840152601f19601f82011690508083019250505050505050815260200160011515815250600160008581526020019081526020016000206000820151816000015560208201518160010190816102879190610fcb565b5060408201518160020160006101000a81548160ff0219169083151502179055509050506002839080600181540180825580915050600190039060005260206000200160009091909190915055827f82972a188d7a560cf772804ac1cadfb42df2654ff1ded99159259c287ead263083836040516103069291906110d9565b60405180910390a2505050565b60008054906101000a900473ffffffffffffffffffffffffffffffffffffffff1673ffffffffffffffffffffffffffffffffffffffff163373ffffffffffffffffffffffffffffffffffffffff16146103a1576040517f08c379a000000000000000000000000000000000000000000000000000000000815260040161039890610d04565b60405180910390fd5b6001600082815260200190815260200160002060020160009054906101000a900460ff16610404576040517f08c379a00000000000000000000000000000000000000000000000000000000081526004016103fb90611149565b60405180910390fd5b600160008281526020019081526020016000206000808201600090556001820160006104309190610833565b6002820160006101000a81549060ff0219169055505060005b60028054905081101561050d57816002828154811061046b5761046a611169565b5b9060005260206000200154036104fa576002600160028054905061048f91906111c7565b815481106104a05761049f611169565b5b9060005260206000200154600282815481106104bf576104be611169565b5b906000526020600020018190555060028054806104df576104de6111fb565b5b6001900381819060005260206000200160009055905561050d565b80806105059061122a565b915050610449565b50807f59341c48fd0b57ee9c153818be62372ef211cc499da6c2c6d5b8fe49721f36c560405160405180910390a250565b606060006001600084815260200190815260200160002060020160009054906101000a900460ff166105a5576040517f08c379a000000000000000000000000000000000000000000000000000000000815260040161059c906112be565b60405180910390fd5b600160008481526020019081526020016000206001016001600085815260200190815260200160002060020160009054906101000a900460ff168180546105eb90610dee565b80601f016020809104026020016040519081016040528092919081815260200182805461061790610dee565b80156106645780601f1061063957610100808354040283529160200191610664565b820191906000526020600020905b81548152906001019060200180831161064757829003601f168201915b5050505050915091509150915091565b6060600060028054905067ffffffffffffffff81111561069757610696610d90565b5b6040519080825280602002602001820160405280156106d057816020015b6106bd610873565b8152602001906001900390816106b55790505b50905060005b6002805490508110156108075760016000600283815481106106fb576106fa611169565b5b906000526020600020015481526020019081526020016000206040518060600160405290816000820154815260200160018201805461073990610dee565b80601f016020809104026020016040519081016040528092919081815260200182805461076590610dee565b80156107b25780601f10610787576101008083540402835291602001916107b2565b820191906000526020600020905b81548152906001019060200180831161079557829003601f168201915b505050505081526020016002820160009054906101000a900460ff1615151515815250508282815181106107e9576107e8611169565b5b602002602001018190525080806107ff9061122a565b9150506106d6565b508091505090565b60008054906101000a900473ffffffffffffffffffffffffffffffffffffffff1681565b50805461083f90610dee565b6000825580601f106108515750610870565b601f01602090049060005260206000209081019061086f9190610896565b5b50565b604051806060016040528060008152602001606081526020016000151581525090565b5b808211156108af576000816000905550600101610897565b5090565b600080fd5b600080fd5b6000819050919050565b6108d0816108bd565b81146108db57600080fd5b50565b6000813590506108ed816108c7565b92915050565b600080fd5b600080fd5b600080fd5b60008083601f840112610918576109176108f3565b5b8235905067ffffffffffffffff811115610935576109346108f8565b5b602083019150836001820283011115610951576109506108fd565b5b9250929050565b600080600060408486031215610971576109706108b3565b5b600061097f868287016108de565b935050602084013567ffffffffffffffff8111156109a05761099f6108b8565b5b6109ac86828701610902565b92509250509250925092565b6000602082840312156109ce576109cd6108b3565b5b60006109dc848285016108de565b91505092915050565b600081519050919050565b600082825260208201905092915050565b60005b83811015610a1f578082015181840152602081019050610a04565b60008484015250505050565b6000601f19601f8301169050919050565b6000610a47826109e5565b610a5181856109f0565b9350610a61818560208601610a01565b610a6a81610a2b565b840191505092915050565b60008115159050919050565b610a8a81610a75565b82525050565b60006040820190508181036000830152610aaa8185610a3c565b9050610ab96020830184610a81565b9392505050565b600081519050919050565b600082825260208201905092915050565b6000819050602082019050919050565b610af5816108bd565b82525050565b600082825260208201905092915050565b6000610b17826109e5565b610b218185610afb565b9350610b31818560208601610a01565b610b3a81610a2b565b840191505092915050565b610b4e81610a75565b82525050565b6000606083016000830151610b6c6000860182610aec565b5060208301518482036020860152610b848282610b0c565b9150506040830151610b996040860182610b45565b508091505092915050565b6000610bb08383610b54565b905092915050565b6000602082019050919050565b6000610bd082610ac0565b610bda8185610acb565b935083602082028501610bec85610adc565b8060005b85811015610c285784840389528151610c098582610ba4565b9450610c1483610bb8565b925060208a01995050600181019050610bf0565b50829750879550505050505092915050565b60006020820190508181036000830152610c548184610bc5565b905092915050565b600073ffffffffffffffffffffffffffffffffffffffff82169050919050565b6000610c8782610c5c565b9050919050565b610c9781610c7c565b82525050565b6000602082019050610cb26000830184610c8e565b92915050565b7f596f7520617265206e6f74207468652061646d696e0000000000000000000000600082015250565b6000610cee6015836109f0565b9150610cf982610cb8565b602082019050919050565b60006020820190508181036000830152610d1d81610ce1565b9050919050565b7f53747564656e7420616c72656164792072656769737465726564000000000000600082015250565b6000610d5a601a836109f0565b9150610d6582610d24565b602082019050919050565b60006020820190508181036000830152610d8981610d4d565b9050919050565b7f4e487b7100000000000000000000000000000000000000000000000000000000600052604160045260246000fd5b7f4e487b7100000000000000000000000000000000000000000000000000000000600052602260045260246000fd5b60006002820490506001821680610e0657607f821691505b602082108103610e1957610e18610dbf565b5b50919050565b60008190508160005260206000209050919050565b60006020601f8301049050919050565b600082821b905092915050565b600060088302610e817fffffffffffffffffffffffffffffffffffffffffffffffffffffffffffffffff82610e44565b610e8b8683610e44565b95508019841693508086168417925050509392505050565b6000819050919050565b6000610ec8610ec3610ebe846108bd565b610ea3565b6108bd565b9050919050565b6000819050919050565b610ee283610ead565b610ef6610eee82610ecf565b848454610e51565b825550505050565b600090565b610f0b610efe565b610f16818484610ed9565b505050565b5b81811015610f3a57610f2f600082610f03565b600181019050610f1c565b5050565b601f821115610f7f57610f5081610e1f565b610f5984610e34565b81016020851015610f68578190505b610f7c610f7485610e34565b830182610f1b565b50505b505050565b600082821c905092915050565b6000610fa260001984600802610f84565b1980831691505092915050565b6000610fbb8383610f91565b9150826002028217905092915050565b610fd4826109e5565b67ffffffffffffffff811115610fed57610fec610d90565b5b610ff78254610dee565b611002828285610f3e565b600060209050601f8311600181146110355760008415611023578287015190505b61102d8582610faf565b865550611095565b601f19841661104386610e1f565b60005b8281101561106b57848901518255600182019150602085019450602081019050611046565b868310156110885784890151611084601f891682610f91565b8355505b6001600288020188555050505b505050505050565b82818337600083830152505050565b60006110b883856109f0565b93506110c583858461109d565b6110ce83610a2b565b840190509392505050565b600060208201905081810360008301526110f48184866110ac565b90509392505050565b7f53747564656e74206e6f7420666f756e64000000000000000000000000000000600082015250565b60006111336011836109f0565b915061113e826110fd565b602082019050919050565b6000602082019050818103600083015261116281611126565b9050919050565b7f4e487b7100000000000000000000000000000000000000000000000000000000600052603260045260246000fd5b7f4e487b7100000000000000000000000000000000000000000000000000000000600052601160045260246000fd5b60006111d2826108bd565b91506111dd836108bd565b92508282039050818111156111f5576111f4611198565b5b92915050565b7f4e487b7100000000000000000000000000000000000000000000000000000000600052603160045260246000fd5b6000611235826108bd565b91507fffffffffffffffffffffffffffffffffffffffffffffffffffffffffffffffff820361126757611266611198565b5b600182019050919050565b7f5468657265206973206e6f2073747564656e7420776974682074686973204964600082015250565b60006112a86020836109f0565b91506112b382611272565b602082019050919050565b600060208201905081810360008301526112d78161129b565b905091905056fea2646970667358221220d18f828f7014d72c908abd9593f8edff53845d02c5dfc9c738b36be311f8095b64736f6c63430008140033",
  "linkReferences": {},
  "deployedLinkReferences": {}
}